:10000000010000000D900D90A46E010001000000A1
:1000100000102000B698A04C000000000000000076
:1000200000000000000000000000000000000000D0
:100030000000000000000000000000000D900D9086
:10004000A55A0000002020080000008000000000E9
:1000500000000000000000000000000000000000A0
:100060000000000000000000000000000000000090
:100070000000000000000000000000000000000080
:100080000000000000000000000000000000000070
:10100000583D0100E92520089D2520089D25200840
:101010009D2520089D2520089D2520080000000012
:10102000000000000000000000000000E1E82008CF
:101030009D2520080000000031E92008C7DD2008B8
:101040009D2520089D2520089D2520089D252008F8
:101050009D2520089D2520089D2520089D252008E8
:101060009D2520089D25200835050000654C200899
:10107000E12E20089D2520089D2520089D2520087B
:101080009D2520089D2520089D2520089D252008B8
:101090009D2520089D2520089D2520089D252008A8
:1010A0009D2520089D2520089D2520089D25200898
:1010B0009D2520089D252008583D01009D252008DC
:1010C000E92520088D0400009D2520089D25200885
:1010D0009D2520089D252008C92E2008D52E2008F2
:1010E000192520089D2520089D2520085BA1B369AE
:1010F0009D2520089D2520089D2520089D25200848
:101100009D2520089D2520089D2520089D25200837
:101110009D2520089D2520089D2520089D25200827
:101120009D2520089D2520089D2520089D25200817
:101130009D2520089D2520089D2520089D25200807
:101140009D2520089D2520089D2520089D252008F7
:101150009D2520089D2520089D2520089D252008E7
:101160009D2520089D252008A1742008000000006E
:10117000000000000000000000000000000000006F
:101180000348044B834202D0034B03B11847704716
:10119000101C0000101C0000000000000548064B59
:1011A0001B1AD90F01EBA301491002D0034B03B165
:1011B00018477047101C0000101C000000000000C1
:1011C00010B5064C237843B9FFF7DAFF044B13B18F
:1011D0000448AFF300800123237010BD101C0000F1
:1011E000000000003C5B210808B5054B1BB1054918
:1011F0000548AFF30080BDE80840FFF7CFBF00BF50
:1012000000000000141C00003C5B210870B5134C6A
:10121000134D23685E6C0023194628460222B0470E
:1012200023681E680023194602222846B047236817
:101230000C4DD3F8C0300520984723685E6C00231E
:10124000194628460A22B04723681C68002328460E
:10125000A4460A22BDE870401946604700013000EC
:1012600000C004240000134630B50E4D2B6885B035
:1012700043B90D4B0FCB6C4684E80F0020460CF0B1
:1012800005F828600BF0C2FD022808D1286830B1AB
:101290004FF0FF3105B0BDE830400CF034B805B078
:1012A00030BD00BF7C1C0000A03A210808B50BF03F
:1012B000ADFD022806D1044B186818B1BDE80840FE
:1012C0000CF046B808BD00BF7C1C00001FB558B12B
:1012D0004379029303790193C3780093837842782A
:1012E000017803480FF046FB05B05DF804FB00BF32
:1012F000B03A21080FB404B07047704730B5114BB5
:1013000093F85830013BDBB2FD2B8FB018D80E4D4F
:101310000FCD6C460FC40FCD0FC40FCD0FC495E891
:10132000030084E80300094C6846D4F8443713F0FE
:1013300007FC03F0A1FED4F8443700200FB030BD05
:101340000120FBE700021F0858021F080080052447
:10135000134B0168D3F84437F0B50127013900D2A7
:10136000F0BDD0F808C04668CCF38455C5EBDC620C
:10137000346801320023013A0CD203FA05F203EA81
:101380000C03C3F3150324EA0202AB40134333609A
:101390000830E3E707FA02FE43EA0E03EBE700BF7B
:1013A0000080052408B51848FFF7D2FF1748FFF75B
:1013B000CFFF04F0EBF804F0FDF804F007F904F0B7
:1013C00019F904F023F91248FFF7C2FF1148FFF79B
:1013D000BFFF1148FFF7BCFF1048FFF7B9FF1048E7
:1013E000FFF7B6FF0F48FFF7B3FF0F48FFF7B0FF57
:1013F0000E48FFF7ADFF0E48FFF7AAFFBDE8084013
:101400000C48FFF7A5BF00BFBC1B0000201B00005D
:101410005C170000281800001C1800003C18000091
:10142000FC160000F0160000E4160000381700005B
:10143000801700007417000010B5254CFFF7B2FFAD
:1014400094F8040600F00100FFF758FF4FF4C023A2
:10145000C4F86C34D4F840311E4843F40023C4F877
:101460004031D4F8403143F00103C4F84031D4F89E
:10147000403143F00203C4F84031FFF769FF1649D9
:101480001648D1F8103543F00203C1F810356369EE
:1014900023F400336361636943F480336361D0F8FC
:1014A0004027D0F87837C2F34342023A23F4F0736E
:1014B00043EA4213C0F87837D1F8943443F4002358
:1014C000C1F89434236943F46013236110BD00BF55
:1014D000008004244819000000A005240080052491
:1014E00008B550B10748FFF733FF0748FFF730FF53
:1014F0000648BDE80840FFF72BBF0548FFF728FF67
:101500000448F6E790190000381A00002C1A000071
:10151000041A0000B01900000B48D0F800D05DF8A4
:1015200004EB5DF804CB5DF804BB5DF804AB5DF83B
:10153000049B5DF8048B80BC40BC20BC10BC08BC84
:1015400004BC02BC01BC70478C1C0000114AD2F8DC
:10155000103623F48073C2F810360F4B596B41F0EC
:1015600001015963596B41F0020159630423C2F828
:10157000383482B000238DF807309DF80730092BEE
:1015800001D902B0704700BF9DF807300133DBB2CC
:10159000F1E700BF0080042400840424FEE700007B
:1015A000054B064A06498B4200D3704752F8040B9C
:1015B00043F8040BF7E700BF10000000645D21084A
:1015C000101C0000064B0748DA1C121AC11E22F03C
:1015D0000302994288BF002200210FF02BBB00BFFD
:1015E000540D0100101C000008B5FFF7D9FFFFF7EC
:1015F000E9FF00F0BBF8BDE808400DF08CBC00002E
:1016000038B562B63A4B3B4A1A603B4B3B4A93F8BB
:1016100006363B4C3B4D03F00F030F2B15BF3A4BE7
:101620004FF00063D3F89312D3F837140CBF116056
:101630001160364A0CBFD3F83634D3F892321360B7
:1016400003F09AFE2B4BE36304F0ECFE032004F05E
:1016500041F903F093FE2E4BDB694FF08061D3F824
:1016600080304FF08C409847EB69022060F30E33D6
:10167000EB61284BDA696FF30202DA6103F0F8FEDE
:101680001D4B1A6A042161F302021A621A6A1207D8
:10169000FCD5AB69022262F38403AB61AB691B0426
:1016A000FCD51D4B1D4D5A6E6FF341025A665A6EA2
:1016B0006FF300025A66FFF749FF19490D4B21618C
:1016C0004FF4FA40E16117496062002220624FF452
:1016D0000040C4E90033C4E90B15C4E90F33A2602C
:1016E0006261E360A06263636164A26138BD00BFB0
:1016F000E01C0000005A620200800424881C0000E4
:10170000901C00000081042400001F08841C0000BD
:10171000000130000086042400840424002D3101DF
:1017200000B4C4040048E8014FF0E02384B0D3F8CB
:10173000402F0192D3F8442F02920199094A914215
:101740000DD10299084A914209D1D3F8882D03920C
:10175000039A42F470020392039AC3F8882D04B0EE
:10176000704700BF210011101100001113B50023B4
:10177000009301932F4BD3F810250092009A00920A
:101780002D4A116821F00F01116011681160D3F822
:101790009C1421F46071C3F89C14D3F804170191D0
:1017A0000199C3F80415D3F8001701910199C3F802
:1017B0000015D3F8101541F01C01C3F81015D2F82C
:1017C000024014F48074FAD11C48436943F4803316
:1017D0004361436964F351434361FFF7A5FF184B2D
:1017E0004FF080725A60174BC0F84031164B5A6860
:1017F00064F3C3025A60036A0E4A43F480330362FF
:10180000036A43F400330362D2F8943443F40023B0
:10181000C2F89434036943F4601303610B4B1A68F4
:1018200042F400221A601A6842F480221A6002B060
:1018300010BD00BF00A00524000005240080042482
:1018400000003041030008000081042400840424C7
:1018500020F04040012802D0022805D07047034AFA
:101860001368013313607047014AF9E7E81C000070
:10187000E41C000010B5124CE3689847A3681148B7
:101880009847236902209847A46A01211520A047A0
:1018900001211620A0474FF4E1310120A0470A4C56
:1018A000206810B90BF0F2FC2060084B4FF4805216
:1018B000C3F88020BFF34F8FBFF36F8F10BD00BF01
:1018C000C83A210851282008EC1C000000E100E083
:1018D00013B5094C00238DF804302360074B012118
:1018E0009B6901A8984723681BB19DF8040002B0CA
:1018F00010BD00F0FBFAF6E7E41C0000C83A21082E
:1019000013B5094C8DF8070000232360074B012114
:101910005B690DF10700984723680BB102B010BD59
:1019200000F0E4FAF8E700BFE81C0000C83A21081C
:1019300003681B780022202B04D0093B042B01D91B
:10194000D0B270470368591C01605B780132F2E73E
:101950000120704708B504F0B7FF162303604FF06D
:10196000FF3008BD08B504F0AFFF16230360FEE7A3
:1019700070B50D4614460BF049FA022805D10C4B00
:101980004FF0FF3118680BF0BEFC2E46731BA342CC
:1019900009DB0BF03BFA022803D1054B18680BF06A
:1019A000D7FC204670BD16F8010BFFF7A9FFEDE745
:1019B000EC1C00004FF0FF3070474FF400534B60B9
:1019C0000020704701207047002070470FB42DE9B8
:1019D000F0438BB012AB002453F8046B019304ADB9
:1019E0008DF81040A846FFF773FF0D2805F8010B8E
:1019F00004D00A2802D00134142CF4D19E4B019F4C
:101A0000E34004F1280213F001030DEB02041ABFB6
:101A1000002304F8183C04F8173C9DF81030CDE979
:101A20000268002B00F04E810025029B1B78002BE2
:101A30004DD0DDF80C9099F80060002E47D002A838
:101A4000FFF776FF044618B103A8FFF771FFECE734
:101A5000029A1346517813F8010B0293252801D1FD
:101A6000252907D18E4232D109F1010302320393B5
:101A70000292DAE726462046A0461A7806F07C0154
:101A8000002A7CD100B1029309B3002C08BF632463
:101A9000082900F08780202900F0AA80042916D1A7
:101AA00057F8042B4946144400200E780B460131A8
:101AB000002E6AD100286FD1B7E7692A50D01ED80E
:101AC000632A52D011D8392A07D82F2A34D8E8B23D
:101AD0000BB0BDE8F04304B07047582AF7D146F088
:101AE000200601334FF0100832E0642AEFD146F4AB
:101AF000005646F0200601334FF00A0828E06F3AFE
:101B0000D1B20929E3D8092AE1D801A151F822F07C
:101B1000552B2008CF2A2008CF2A2008CF2A2008BA
:101B2000792B2008CF2A2008F32A2008CF2A200862
:101B3000CF2A2008DF2A2008002CC8D10A211A78D1
:101B4000303A01FB042413F8012F303A092AF6D960
:101B5000012092E746F0200601334FF00808F7E72E
:101B600046F0200601338846F2E7012C46F00406D1
:101B700038BF01240133EBE746F00806FAE70029F5
:101B80009BD0002881D002937FE702F8016BA2422C
:101B90004FF0010089D10B46994503933FF445AFBF
:101BA000013542E703A8FFF7C3FE039E57F8043B45
:101BB000314603EB040C00200C4611F8012B12B93E
:101BC00060B103940AE00D2A0FD8082AF8D803F868
:101BD000012B63454FF00100EED10391039A964229
:101BE0003FF423AF00221A70DAE7202AEFD1E7E7AB
:101BF00003A8FFF79DFE039BB8F1000F10D0B8F1CA
:101C0000100F17D11A78302A14D15A7802F0DF0257
:101C1000582A0FD102330393023C4FF0100809E019
:101C20001A78302A16D15A7802F0DF02582AF1D0F9
:101C30004FF00808039B1A782B2A0ED02D2A0FD1BB
:101C400001330393013C4FF0FF31039A0020144409
:101C5000844616E04FF00A08ECE701330393013C99
:101C60000121F2E7A9F14103052B02D920B3039228
:101C700022E0A9F1370317E0010010000CFB083C3B
:101C8000012092F800909646B9F1000FEED0A242E2
:101C9000ECD0A9F13003DBB2092B06D9A9F161031D
:101CA000052BDFD8A9F15703DBB2984502F10102F9
:101CB000E4D808B1CDF80CE057F8043B0CFB01F177
:101CC00019606DE74FF0FF3501E700BF04480223BC
:101CD0001421C21801334B2B82F80013F9D170473D
:101CE00000E100E0064B1868002382B262F30F03A4
:101CF000000C60F31F4382B0184602B0704700BF6B
:101D00003C3B2108014B1868704700BF28000000C9
:101D1000014802F0CDBF00BF28000000014902F0D9
:101D200087BF00BF28000000014802F05FBF00BF6E
:101D30002800000037B504460B200D4600F0EAF9F4
:101D4000064B1B680193064B00930246054B294640
:101D5000204602F01FFD03B030BD00BFD8200000B8
:101D60001000000028000000014802F00FBD00BF75
:101D700028000000014802F006BD00BF2800000056
:101D80007FB5104BD3E90354B2F5806F2E883ABF6C
:101D900002F1FF33C3F3090340F2FF3363F30D167F
:101DA0002E80258863F30D15074B25801B68029351
:101DB000064B0193064B0093024B02F0ABFC04B0C0
:101DC00070BD00BF28000000D8200000F01C0000FB
:101DD000100000000D4B1A69B1F5806F13B538BFC4
:101DE00001F1FF33148834BFC3F3090340F2FF331A
:101DF00063F30D14064B14801B680193054B00938D
:101E0000024A054B02F0E8FB02B010BD28000000BA
:101E1000D8200000F01C0000100000000D4BDA6814
:101E2000B1F5806F13B538BF01F1FF33148834BFAB
:101E3000C3F3090340F2FF3363F30D14064B148020
:101E40001B680193054B0093024A054B02F016FBF9
:101E500002B010BD28000000D8200000F01C0000D7
:101E600010000000024B034A1B68034902F07ABAD3
:101E7000D82000001000000028000000034B044997
:101E800004484FF400129A6402F030BA008404242B
:101E9000100000002800000007B5064B0193064B18
:101EA0000093064A064B074902F0A0F903B05DF81B
:101EB00004FB00BF60200000D820000010000000DC
:101EC000001C062428000000014802F073B800BF7F
:101ED000B0000000014802F06DB800BF6C000000C7
:101EE000014802F067B800BF28000000FFF7F8BF04
:101EF000354BDFED366AD3F8102242F04002C3F8CA
:101F0000102207EE900AD3F81022F4EEE67A42F09F
:101F10001002F1EE10FA07EE101A82B0C3F8102288
:101F200006DCF0EE086AB4EEE67AF1EE10FA08D5B7
:101F3000D3F8102242F02002C3F81022002002B091
:101F400070479FED237AF4EEC77AF1EE10FA10D5C0
:101F5000D3F810226FF30302C3F81022D3F8102233
:101F60006FF38612C3F81022D3F810226FF3041215
:101F7000E2E777EEC77ADFED176A134A87EEA67AB3
:101F8000F7EE007A77EE277AFCEEE77ACDED017A6C
:101F90009DF80430F6EE007A77EE277A07EE103AD5
:101FA000B8EE477AB4EEE77AF1EE10FAC2BFFCEE73
:101FB000E77ACDED017A9DF80430D2F8101263F380
:101FC0000301C2F81012B9E7003804243333334058
:101FD000CDCCCC3F0AD7A33D0A4B9A6C013A052AD7
:101FE0000ED8DFE802F003050705090B586C7047AF
:101FF000D86A7047D86B7047186B7047586B70473A
:1020000000207047901C000006281DD8DFE800F073
:10201000040A0D10131619000C4B586809B1B0FBD7
:10202000F1F07047094B186AF8E7084B586AF5E772
:10203000064B986AF2E7054BD86AEFE7034B186B3B
:10204000ECE7024BD868E9E70020E7E7901C0000C6
:1020500010B5032814D8DFE800F0020A0D100F486D
:10206000C06A7AB1A3B981B1B0FBF1F00DE00B48C1
:10207000C069F6E709484069F3E708488068F0E777
:102080000020EEE723B909B9400810BD4900EBE78D
:10209000CB07FAD50229F8D9E6E700BF901C00006B
:1020A000F8B50C461546042828D8DFE800F00321CF
:1020B0001B1E2400FFF790FF15B394B10DF084F9B7
:1020C000064620460F460DF07FF9104B00220DF01A
:1020D0003FF802460B46304639460DF019FB0DF02D
:1020E00087FCF8BD0A4BD869E6E7094B5869E3E776
:1020F000074B9868E0E7064BD868DDE70020DBE790
:10210000002CEED0B0FBF4F0EBE700BF0000E03FA6
:10211000901C000010B50E2800F28F81DFE810F04F
:102120000F001E002D005300720084009600B300C3
:10213000CA00DD00E70009013201600182014FF0B1
:102140008C43BDE81040D869D969DA69C1F3C3018D
:10215000C2F3407200F00700FFF7A2BF4FF08C43BC
:10216000BDE81040D869D969DA69C1F38321C2F3A7
:102170008072C0F3C210FFF793BF4FF08C42936997
:102180009469C3F3C233C4F3C324052B19D8DFE821
:1021900003F003090C0F1215FFF71EFF0CB1B0FB83
:1021A000F4F010BD8C4B9868F8E78B4B1869F5E795
:1021B000894B5869F2E7884BD869EFE7864BD868B6
:1021C000ECE70020EAE74FF08C42936A946AC3F38D
:1021D0004243C4F30554032B12D8DFE803F002088E
:1021E0000B0EFFF7F9FE002CDBD06400D7E77A4B2B
:1021F0005869F8E7784B9868F5E7774BD868F2E7C5
:102200000020F0E74FF08C43BDE8104098699969D1
:102210009A69DB69C2F34022C3F30073C1F3C501BD
:1022200000F00700FFF714BF4FF08C43BDE81040EB
:10223000D86F99699A69DB69C2F34022C3F30073CE
:10224000C1F3C501C0F34220FFF702BF4FF08C433A
:102250009B69C3F30263042B00F2EF80DFE803F015
:1022600003060A0D10005C4BD8689AE7BDE81040E1
:10227000FFF7B2BE584B986893E7574BD86990E781
:10228000554B58698DE74FF08C429169936992697B
:1022900011F4802F5049C2F3C0520CBF48698868BE
:1022A000C3F3C3431AB1002B3FF47BAF12E083B9F1
:1022B000400876E74FF08C439A6A9B6A12F4806F6D
:1022C000454A0CBF9069D068C3F3C523002B3FF487
:1022D00068AF5B00B0FBF3F063E7404B9869996926
:1022E000BDE81040C1F34641000FFFF78DBE3B4BE8
:1022F000DA69DB69C2F34302C3F34713052A16D830
:10230000DFE802F00306090C0F12334A5068DDE7DC
:10231000314A106ADAE7304A506AD7E72E4A906AA3
:10232000D4E72D4AD06AD1E72B4A106BCEE70020C4
:10233000CCE72A4B1A6A1B6AC2F34302C3F3421367
:10234000072A1DD8DFE802F004070A0D101316193A
:10235000214A5068A7E7204A106AA4E71E4A506A3B
:10236000A1E71D4A906A9EE71B4AD06A9BE71A4A7A
:10237000106B98E7184AD06895E7174A506B92E7B8
:10238000002090E7154B1B6BC3F34303062B54D877
:1023900001A252F823F000BFB5332008BB33200858
:1023A000C1332008C7332008CD332008D333200899
:1023B00067322008084B5868F3E6074B186AF0E6C6
:1023C000054B586AEDE6044B986AEAE6024BD86A78
:1023D000E7E6014B186BE4E6901C000000140424AF
:1023E000174B5B6BC3F34303082B26D801A252F8AB
:1023F00023F000BFB5332008BB332008C1332008C9
:10240000C7332008CD332008D33320086732200893
:10241000193420081F3420080A4B586BC1E6094BB9
:102420009869BEE6064BD86AD96ABDE81040C1F388
:102430004711C0F34300FFF7E7BD0020B1E600BF3E
:1024400000140424901C0000024B1B68D3F8BC301D
:10245000184700BF00013000024B1B68D3F8CC3096
:10246000184700BF00013000024B1B68D3F8EC3066
:10247000184700BF0001300007EE100AFDEEC77AD2
:10248000F8EEE76AF4EEC76AF1EE10FA41BF17EE14
:10249000903A013307EE903AF8EEE76A16EE900AAA
:1024A00070470000024B01219B69C0B2184700BF72
:1024B0008C210000FFF7F6BF1346054A126810B4DE
:1024C000546C0A46A44600215DF8044B604700BFE7
:1024D0000001300010B54FF4006002F089FF094C94
:1024E000094B4FF000725A6422782AB9074B08480A
:1024F0001B6A01219B6A9847237843F001032370EC
:1025000010BD00BFDC240000008404240001300062
:102510000014042482B0ADF804000A4B4FF40062AA
:102520001A609DF80420084B2AB9D3F8082242F417
:102530000062C3F808225A68002042F001025A6083
:1025400002B0704700E100E000380424F0B51E4BF3
:102550001E491F7F1E4B1B780022104603F59875FD
:10256000D4B2A7420BD803F590730022174C21F880
:1025700013200123DAB2974224D80020F0BD31F8AD
:102580001540A04238BF20460132E9E7624504D039
:10259000B5F820E0724492B208E001361FFA86FCDA
:1025A00060450BD90B4D002135F8022F9042EDD834
:1025B000013189B28B42F7D8A4F842C20133023408
:1025C0009BB2D7E70026E9E78C210000AC21000090
:1025D00088210000EA230000012800D17047C307CA
:1025E00001D44008F8E700207047034601208342E9
:1025F00008DC00EBD072A3EB6203B3EBA00FB8BF13
:10260000400870474000F2E784B02DE9F7430AAC78
:1026100084E80F000023ADF806309DF8BC51624BF2
:102620009DF8BD715A885B68B3FBF2F30DB9012FB9
:1026300045D15E4901250A885D4C07EE903A92B279
:102640000AAB03EB820393ED057AF8EE677AB8EEF6
:10265000477AC7EE877A17EE900AFFF70DFF07EE6D
:10266000900AFCEEE77A0B8817EE902A4FF6FF707F
:102670009BB203F59873824228BF024624F81320C8
:102680000B889BB203F5987334F81330012B06D8EE
:102690000B889BB203F59873022224F81320454E51
:1026A0000DF138094FF00008B7EE006A5FFA88F3C1
:1026B0009F4207D803B0BDE8F04304B070470DF166
:1026C0000601B8E7B8F1000F17D0D9ED007A3288CB
:1026D000B8EE677AD9ED017AF8EE677AC7EE277A15
:1026E00017EE900AFFF7C8FE07EE900AFCEEE77AB5
:1026F00017EE903A13FB02F37380012F08D0728813
:102700001046FFF769FF18B91046FFF76EFF70809B
:102710008DB10B880AAA9BB202EB4303B3F8F430E5
:10272000012B08D10B889BB203F5987334F8132062
:10273000920824F81320DFED207A00231FFA88F096
:102740009842ADF806300AD2F4EEC67AF1EE10FAED
:1027500027DC08F10108023609F10409A6E70A8816
:1027600092B202F59872013334F8122007EE102A63
:10277000B8EE477A9BB2C6EE076A77EEA67ADFE735
:102780000A8892B202F59872013334F812C04FEA07
:102790004C0C24F812C09BB29842ADF80630EFD230
:1027A000D7E70023F8E700BF8C2100008821000054
:1027B000AC2100000A2400000000000007EE100A0F
:1027C000DFED087A084837EE277AF7EE006AC6EEA2
:1027D000877AFCEEE77A17EE903A834228BF0346E9
:1027E0001846704795BFD633404B4C0084B0F0B5C7
:1027F00006AC84E80E00DFED957A002123AC0DF1E4
:102800006B050A460B46CEB2B04200F2B080002BF8
:1028100000F0A480B0EE007AF4EEC77AF1EE10FA80
:10282000B0EE047A05DBF4EEC77AF1EE10FA00F1AF
:10283000DD80F4EEC77AF1EE10FAB0EE087A05DB2F
:10284000F4EEC77AF1EE10FA00F1D680F4EEC77A12
:10285000F1EE10FAB1EE007A05DBF4EEC77AF1EE94
:1028600010FA00F1CC80F4EEC77AF1EE10FAB1EE76
:10287000047A05DBF4EEC77AF1EE10FA00F1C280BB
:10288000F4EEC77AF1EE10FA07DBB1EE087AF4EE57
:10289000C77AF1EE10FA00F1B880B1EE0C7AF4EEDE
:1028A000C77AF1EE10FAB2EE007A05DBF4EEC77AE1
:1028B000F1EE10FA00F1AC80F4EEC77AF1EE10FA06
:1028C000B2EE027A05DBF4EEC77AF1EE10FA00F10F
:1028D000A280F4EEC77AF1EE10FA07DBB2EE047ACA
:1028E000F4EEC77AF1EE10FA00F19880B2EE087AB1
:1028F000F4EEC77AF1EE10FA06DBB2EE0C7AF4EEE3
:10290000C77AF1EE10FA61D4B3EE017AF4EEC77A29
:10291000F1EE10FA06DBB3EE027AF4EEC77AF1EECE
:1029200010FA60D4B3EE097AF4EEC77AF1EE10FA39
:1029300006DBB3EE0A7AF4EEC77AF1EE10FA70D93C
:10294000B3EE0B7AF4EEC77AF1EE10FA06DB9FEDE8
:10295000407AF4EEC77AF1EE10FA74D9DFED3D7AE1
:102960009FED3D7A002A18BFF0EE477A65E015F832
:10297000016FA6F1140CBCF1020F2F7C0FD894ED5F
:10298000007AF4EEC77AF1EE10FA03D50133DBB228
:10299000F0EE477A0D2F16D00131043433E7A7F15A
:1029A0000A0CBCF1020F0CD894ED007AB4EEE77A71
:1029B000F1EE10FA03DD0133DBB2F0EE477A182EA8
:1029C000E9E7182EE6D10132D2B2E5E7DFED237A4E
:1029D0009AB39FED217AF4EEC77AF1EE10FA23D57F
:1029E000F0EE477A29E0DFED1E7AF1E7DFED1D7AA0
:1029F000D2B1DFED197A20E0DFED1B7AF8E7DFEDE9
:102A00001B7AF5E7DFED1A7AF2E7DFED1A7AEFE7E6
:102A1000DFED197AECE7DFED197AE9E7DFED187AF7
:102A2000E6E7DFED187A42B19FED0A7AF4EE477AD5
:102A3000F1EE10FA48BFF0EE477ABDE8F04017EE2D
:102A4000900A04B07047DFED107AECE70000000058
:102A500000004C4295BFD6338BE16A36EFE608366C
:102A60009F9D42362E5A823301A90C3437F85934CF
:102A70002439EC3434580F35AD186335883E8A3527
:102A8000ACC5A735B1B49D36F2DD1C3738B50C4660
:102A9000154622B9132840F23681002038BD092995
:102AA00000F22E81132815D8122813D8DFE800F081
:102AB0000A2F35414D59657682128E949AA0A6ACA4
:102AC000B2BECA000020FFF7CFFC07220021A448B5
:102AD000FFF7F2FC092CE0D8DFE814F0C000C600D4
:102AE000CC00D200D800DE00E400F100FD000901B6
:102AF0000020FFF7B9FC072200219948FFF7DCFC12
:102B0000CBE70220FFF7B0FC07220221F5E7022005
:102B1000FFF7AAFC07220221D9E70420FFF7A4FC53
:102B200007220421D3E70420FFF79EFC072204219B
:102B3000E3E70620FFF798FC07220621C7E70620F7
:102B4000FFF792FC07220621D7E70820FFF78CFC4D
:102B500007220821BBE70820FFF786FC072208218F
:102B6000CBE70A20FFF780FC07220A21AFE70A2003
:102B7000FFF77AFC07220A21BFE77A4B20225A602E
:102B80001920FFF769FC1920FFF75EFC0E221921BE
:102B90007548FFF791FC002D9CD17EE7714B2022F8
:102BA0005A601B20FFF758FC1B20FFF74DFC0E223C
:102BB0001B21EDE76B4B20225A601D20FFF74CFCD8
:102BC0001D20FFF741FC0E221D21E1E70120FFF748
:102BD0004BFC072201217AE70320FFF745FC07227F
:102BE000032174E70520FFF73FFC072205216EE76C
:102BF0000B20FFF739FC07220B2168E70920FFF7BC
:102C000033FC0722092162E70720FFF72DFC07228A
:102C100011465CE7534B20225A601A20FFF71CFC38
:102C20001A20FFF711FC0E221A21B1E74D4B20228A
:102C30005A601C20FFF710FC1C20FFF705FC0E2239
:102C40001C21A5E7474B20225A601E20FFF704FCF9
:102C50001E20FFF7F9FB0E221E2199E70120FFF746
:102C600003FC0722012148E70320FFF7FDFB0722B1
:102C7000032142E70520FFF7F7FB072205213CE788
:102C80000B20FFF7F1FB07220B2136E70920FFF7A6
:102C9000EBFB0722092130E70720FFF7E5FB0722BE
:102CA00011462AE72F4B20225A601A20FFF7D4FB47
:102CB0001A20FFF7C9FB0E221A212B481EE7294BC9
:102CC00020225A601C20FFF7C7FB1C20FFF7BCFB2B
:102CD0000E221C21F1E7234B20225A601E20FFF711
:102CE000BBFB1E20FFF7B0FB0E221E21E5E71820DC
:102CF000FFF7B2FB1820FFF7A7FB0E221821DCE735
:102D000042F20310CAE612283FF6C7AE01A353F8F9
:102D100020F000BFF13A2008033B2008273B2008A1
:102D20003F3B2008573B20086F3B20087B3B200897
:102D30009D3B2008B53B20089B3A20085D3C2008BD
:102D4000693C2008753C2008813C20088D3C200807
:102D5000993C2008153C20082D3C2008453C2008C3
:102D600000C00424000030410000134682B02DE969
:102D7000F0410F2906AC84E80C005FD8BDF8204074
:102D8000BDF8225044EA0503B3F5806F56D22E4BAE
:102D9000079E9DF824809DF825E043F8212001F14D
:102DA000100701F1400C43F8276001F15007B242CF
:102DB00023F81C4023F8175042D0B8F1000F17D069
:102DC00001F1300802EB4402C0F8D42143F8282076
:102DD00044EAC12242F40048C0F8D881D0F8D88132
:102DE000C0F8D821D0F8D82143F82C8043F8272008
:102DF000BEF1000F1DD001F1600204EB4504344424
:102E000043F82240CA0202F580622A43C0F8D44146
:102E100042F40044C0F8D84101F17004D0F8D85110
:102E200043F824508031C0F8D821D0F8D82143F895
:102E300021200020BDE8F04102B070470120F9E7F1
:102E400042F20210F6E700BFAC2100000F2910B5D6
:102E500028D892B1144A01F1300452F82440C0F845
:102E6000D44101F1400452F82440C0F8D84101F1A6
:102E7000500452F82420C0F8D8218BB10A4B01F13C
:102E8000600253F82220C0F8D42101F17002803191
:102E900053F8222053F82130C0F8D821C0F8D83197
:102EA000002010BD0120FCE7AC21000010B5274B2D
:102EB00027485A685A6842F001025A60D3F808223B
:102EC00042F48062C3F8082203F5B4331A6802683A
:102ED00052BBD3F8402442F46752C3F840241D4A41
:102EE000D2F80230DC05FBD41B4BD3F80427D10702
:102EF000FBD5D3F80427D207FBD4D3F84824174CCA
:102F0000174B21681A60930803F4F8530B439100A0
:102F100001F07C0112020B4302F47832134343F0B8
:102F200081032360012303600C4B1A680A4BC3F82A
:102F30004424084AD2F8023013F48073FAD1034AC9
:102F4000516863F30001516010BD00BF00380424D4
:102F50007C2100000000052400A00524842100003D
:102F60008021000084B070B52DED028B82B008ACDA
:102F700084E80F00444C6E9AA2610D9A43499DF873
:102F8000B531BDF814012377013A8A4278D20DA9F0
:102F90000122934209D8012B6FD19DF8B43173B14E
:102FA00001280FD942F2061060E00E4651F8045F86
:102FB0003668B54264D8002D62D00132E9E7B0F539
:102FC000806FEFD2FFF786FA314B32485A689FED97
:102FD000328A6FF38A225A60DA686FF31842DA6035
:102FE000DA68042161F30902DA605A682B4942F475
:102FF00080625A60FEF77CFF294B5B686360FFF7D5
:1030000055FF02F021FB208102F012FB208202F02A
:1030100021FBC0F30D0307EE103AB8EEC77A830B1D
:10302000C7EE086A07EE903AF8EEE77A77EEA67AEE
:10303000C4ED037A02F002FBC0F30D0307EE103A71
:10304000B8EEC77A830BC7EE086A01A807EE903A7C
:10305000F8EEE77A002377EEA67A0193C4ED057ABD
:1030600002F0D4FF003818BF0120404202B0BDEC8E
:10307000028BBDE8704004B07047013B0F2B90E716
:1030800042F20410F2E700BF8C210000A0252600C8
:10309000003804243333334000007A44CDCC4C4014
:1030A000901C000084B010B52DED028B82B006ACF0
:1030B00084E80F009DF818300F2B7FD84249434C0D
:1030C0000B706C99A16106A901EB83014048496925
:1030D0009DF8AD2122770139814271D2012A6AD14E
:1030E00006AA02EB43039DF8AC21B3F8F43022B1F9
:1030F000012B05D942F2061056E0B3F5806FF9D2E4
:10310000FFF7E8F9334B34485A689FED348A6FF380
:103110008A225A60DA686FF31842DA60DA680421AA
:1031200061F30902DA605A682D4942F480625A60FC
:10313000FEF7DEFEFFF7BAFE2A4B5B68636002F023
:1031400083FA208102F074FA208202F083FAC0F33D
:103150000D0307EE103AB8EEC77A830BC7EE086A84
:1031600007EE903AF8EEE77A77EEA67AC4ED037AA6
:1031700002F064FAC0F30D0307EE103AB8EEC77A16
:10318000830BC7EE086A01A807EE903AF8EEE77ADB
:10319000002377EEA67A0193C4ED057A02F036FF9C
:1031A000003818BF0120404202B0BDEC028BBDE8E0
:1031B000104004B07047013A0F2A9AE70120F3E764
:1031C00042F20410F0E700BF882100008C210000CB
:1031D000A0252600003804243333334000007A440D
:1031E000CDCC4C40901C00000F29024610B54FF08A
:1031F00001000CD8D2F8CC4100FA01F32343D2F8F5
:10320000CC119BB263F30F01C2F8CC11002010BDAA
:103210000F29024610B54FF001000DD8D2F8CC416D
:1032200000FA01F343EA1443D2F8CC119BB263F3E2
:103230001F41C2F8CC11002010BD30B50F299DF8F8
:103240000C402CD81F2A2AD80F2B28D8012C26D87E
:1032500045686D060FD5090134B14518AC6B44EAD9
:10326000835343F08063AB6301448B6B43EA424377
:103270008B63002030BD5CB1D0F8081241F40071BE
:10328000C0F80812D0F8081263F34811C0F8081209
:10329000D0F8083262F30403C0F80832E9E70120ED
:1032A000E8E7000029B9D0F8083261F3CB23C0F871
:1032B0000832064B5B68DB0741BF43686FF30003CE
:1032C0004360002058BF4FF0FF307047003804249F
:1032D000C1B2024882B002B0FFF7E4BF0038042454
:1032E0000F2915D80D4B5A68520603D4D3F8DC3198
:1032F000002B0FDAD0F8DC2101238B401343D0F8E8
:10330000DC219BB263F30F02C0F8DC210020704780
:10331000012070474FF40450704700BF0038042468
:10332000B1F5007F14D2B2F5806F11D243686FF30C
:103330008A234360C36861F31843C360C36862F3C0
:103340000903C360436843F480634360002070470F
:10335000012070470F2925D8012A05D1436A6FF350
:10336000D753436200207047022A0BD1436A6FF3A0
:1033700000034362436A6FF304134362436A6FF3CB
:10338000C303EEE7084BD3F8DC31002BEADA436ADB
:103390000122C3F3CF138A4023EA0201436A61F397
:1033A000D613DEE701207047003804240F290346B6
:1033B0004FF0010014D81A6A00FA01F189B2186AB4
:1033C000C2F30F220A4362F3172018621A6AC2F38B
:1033D0000F2222EA0102196A62F317211962002002
:1033E0007047000010B510B1012804D010BDBDE831
:1033F0001040FFF76FB84FF4006002F013F80A4A6C
:1034000013786FF300031370DBB2002BEED1074B80
:1034100007484FF000729A64064B1B6ABDE81040E3
:10342000DB6B0221184700BFDC2400000084042469
:10343000001404240001300013B50D4BADF8040056
:103440004FF40062C3F88020BFF34F8FBFF36F8F3C
:1034500003220121002002F0ADFE044628B901201C
:10346000FFF7C0FF204602B010BD4FF0FF30FAE773
:1034700000E100E04368064A61F349234360D2F863
:10348000403443EA4143C2F840340020704700BF53
:1034900000A0052484B02DE9F04F2DED028BF1B092
:1034A0007CAC84E80F009DF8853365934FF4C472BB
:1034B00001237FA9684669939DED818A9DF8845315
:1034C0000DF06EFC94E80E006598BA4CFFF78EF98B
:1034D00005EE900AFFF772F994ED017A07EE900A73
:1034E000B8EE476AF8EE677AB7EE007A87EE065ACA
:1034F000C7EE276AC6EE857A17EE900AFEF7BCFF84
:1035000007EE900AFCEEE77A17EE903AC5EE857A60
:103510009EB217EE900AFEF7AFFF07EE900AFCEEA0
:10352000E77A17EE903A9FB2BE4204BF0136B6B2B8
:10353000002D5ED1BDF8843327804FF4C27280A97C
:10354000684666809C4CADF884310DF029FC7CAB5C
:103550000FCBFFF759F8FEF7F9FF32463946204600
:10356000FFF7DEFE01212046FFF784FF6368934EDC
:10357000DFF8409243F000636360636843F0400308
:103580006360636865F3410363603323C4F8E43127
:10359000636843F004036360D4F8DC3143F0004314
:1035A000C4F8DC310DF2E223669306F18103A8AF83
:1035B00006F13E0B67930DF5F878659AEBB29A42E7
:1035C00000F28D807E4B6A9300227E4B6B9369A93B
:1035D000104602F053FD10B1452840F0E78069998C
:1035E0006AAA002002F0B8FD003818BF012040424E
:1035F0006EE0B8EE488A3946C6EE087A17EE900AB1
:10360000FEF73AFF07EE106A07EE900AB8EEC77AA7
:103610006948B4EEE77AF1EE10FA49BFFCEEE77ABA
:10362000324617EE903A9AB24DBF6280278066808C
:103630002780FFF775FE01215F48FFF71BFF5E4BF8
:103640005A6842F000625A605A686FF386125A60F4
:103650006A1E012A5A684FF0000194BF42F002022C
:1036600065F341025A60C3F8E4115A6842F004025B
:103670005A60D3F8DC2161F3DF72C3F8DC219DF8D6
:10368000F1219DF844029DF854125AB1D3F8086212
:1036900062F34926C3F80862D3F8086261F348165A
:1036A000C3F80862444ED6F8083260F30403C6F843
:1036B0000832FFF7EBF92A4600213046FFF74AFEB1
:1036C00062886368B3FBF2F33F4A0020C2F880329D
:1036D00071B0BDEC028BBDE8F04F04B0704798F8B4
:1036E00054A098F86430649318F8013F63930093F2
:1036F00052462946649B2046FFF79FFD36F8021F7D
:10370000328C012A08D0AB0003F1105303F5872354
:10371000A3F83811C3F8782129462046FFF7E0FDC9
:10372000DDE963215046FFF7B1F929462046FFF74E
:103730006FFD7B6E6C93D7F8A4306D93669B33F866
:1037400002AF669340F20113ADF8BC31ADF8B8A1F9
:10375000ADF8BAA170AB13E90300DDE96C238DE885
:10376000030029462046FFF701FB29462046FFF7C4
:103770003BFD002229462046FFF7ECFDB9F8022068
:10378000D9F80430B3FBF2F3328CB3FBF2F34BF80D
:10379000043F57F8043FA6F8D0A0CBF85030679B01
:1037A000639A03F8012F0135679306E74FF0FF3066
:1037B0008EE700BF8C21000000380424EA230000BB
:1037C000A5342008B5342008AC21000084B02DE9D0
:1037D000F04FEDB076AC84E80F009DF8D8419DF82D
:1037E0006C639DF86DA301200F2C659000F212818F
:1037F000DFF840828A4D88F800404FF4C47279A9FE
:1038000068460DF0CDFA76AB0ECB5046FEF7EEFFD4
:1038100005EE900AFEF7D2FF95ED017A07EE900AC9
:10382000B8EE476AF8EE677AB7EE007AC7EE276A15
:10383000C7EE067AC6EEA77A17EE900AFEF71CFED0
:1038400007EE900AFCEEE77A17EE903A66EE257ADC
:103850009FB217EE900AFEF70FFE07EE900AFCEEFD
:10386000E77A17EE903A1FFA83F94F4504BF013704
:10387000BFB2002E51D1BDF86C336A4C6F804FF44B
:10388000C2727AA96846A5F80090ADF884310DF0AF
:1038900087FA76AB0FCBFEF7B7FEFEF757FE3A4638
:1038A00049462046FFF73CFD01212046FFF7E2FD97
:1038B00063685D4F43F000636360636843F04003F7
:1038C0006360636866F3410363603323C4F8E431E3
:1038D000636843F004036360D4F8DC3143F00043D1
:1038E000C4F8DC31F3B29A4500F2A6804F4B6693E0
:1038F00000224F4B679365A9104602F0BFFB10B141
:10390000452840F02A81659966AA002002F024FC2F
:10391000003818BF012040427CE076AB03EB840402
:10392000D4ED057AF8EE677A4946C6EE277A17EEA7
:10393000900AFEF7A1FD07EE107A07EE900AB8EEA6
:10394000C77A3848B4EEE77AF1EE10FA49BFFCEED8
:10395000E77A3A4617EE903A9AB24DBF6A80A5F8D8
:1039600000906F80A5F80090FFF7DAFC01212D4848
:10397000FFF780FD2B4B5A6842F000625A605A688C
:103980006FF386125A60721E012A5A684FF00001C6
:1039900094BF42F0020266F341025A60C3F8E41198
:1039A0005A6842F004025A60D3F8DC2161F3DF72F6
:1039B000C3F8DC2198F8002002F5EC726A4492F812
:1039C000540092F8641052785AB1D3F8084262F366
:1039D0004924C3F80842D3F8084261F34814C3F8F5
:1039E0000842104FD7F8083260F30403C7F80832D2
:1039F000FFF74CF898F80040324621463846FFF76A
:103A0000A9FCA0346A886B68B3FBF2F3064A42F85B
:103A1000243000206DB0BDE8F04F04B0704700BF07
:103A20008C21000000380424AC210000A5342008BB
:103A3000B53420088821000098F80010639101F542
:103A4000EC736B44204693F8642093F8549093F8F9
:103A500001B062921346CDF800B04A46FFF7EDFB85
:103A6000639901F5907337F8130001F5987337F8EF
:103A70001320012A08D08B0003F1105303F587238C
:103A8000A3F83801C3F878212046FFF729FC5A46ED
:103A900062994846FEF7FAFF98F80090204649469A
:103AA000FFF7B6FB76AB03EB89030136D3F814318D
:103AB000689376AB03EB8903D3F85431699376AB03
:103AC00003EB4903B3F8F430ADF8A831ADF8AA31EF
:103AD00040F20113ADF8AC316CAB13E90300DDE942
:103AE00068238DE8030049462046FFF73FF998F820
:103AF000009020464946FFF777FB494600222046C2
:103B0000FFF728FC09F1A00269886B68B3FBF1F3A9
:103B100009F5987137F81110B3FBF1F347F822302B
:103B200076AA02EB490209F5C473B2F8F42027F82B
:103B3000132076AA02EB890209F1B403D2F8B4206B
:103B400047F8232009F5EC7207EB09030DEB020996
:103B500099F8012083F8C022C4E64FF0FF3059E7FE
:103B6000D0F8E03143F00103C0F8E03100207047A5
:103B70002DE9F341374B9A6A0192019A16020DD54D
:103B8000426A1502C2F3C05008D45A6A42F40002D5
:103B90005A62314B9B690421984718E0019BDC076E
:103BA00009D52C4A136A43F0010313622A4B0521FD
:103BB0009B690020F0E7019C14F080740BD025482D
:103BC000012100F095F8254B02201B689847002042
:103BD00002B0BDE8F0811F4B5A68500603D4D3F8F9
:103BE000DC21002A25DA1E4D1A4FDFF86C80019B7C
:103BF000E21DD340D90716D521463846FFF7D6FB3C
:103C00002B78E6B2B3FA83F2520931463846FFF711
:103C10001DF9D8F818300021304698472B78B3FAB0
:103C200083F35B092B700134102C05F10105DED103
:103C3000CDE75A689207CAD4D3F8DC11C90FC6D1B0
:103C40005A6842F004025A600198034BC0B29B6963
:103C5000A2E700BF003804248C210000E02400000B
:103C60006C2100000148FFF783BF00BF0038042427
:103C7000030548BF20F40060174B58BF40F40060B4
:103C8000D1B11A8A93ED057A821A07EE902AF8EEDE
:103C9000E77A67EE877AFDEEE77A17EE903A18B288
:103CA000B0F5805F11DA002812DDB0F5006F10DB8F
:103CB000A0F5006000B270471A8993ED037A821A6A
:103CC00007EE902AF8EEE77AE3E740F6FF70EFE7B9
:103CD000002000F50060EDE78C210000406921B173
:103CE0001146C0F30B00FFF7C3BFC0F30B007047D2
:103CF000436A01291DBF43F002034362436A43F054
:103D0000807318BF43F004034362002070472DE91D
:103D1000F04F92F806C092F802A05378D578167941
:103D2000577992F807E092F8088092F8099092F893
:103D30000AB0D47A127802B35B0643EA4B7343EAC3
:103D40008A5343EA495343EA085343EA4E4343EA5A
:103D50000C4343EA47330901026843EAC62301F1F1
:103D6000105143EA852301F5872142F0004243EADE
:103D700044230260CB63BDE8F08F02686CF3C71286
:103D8000026002686AF34F320260026863F3134212
:103D90000260036865F341030360036866F383030D
:103DA0000360036867F30613036003686EF30A2376
:103DB0000360036868F3CB230360036869F30C3383
:103DC000036003686BF314530360036864F3000338
:103DD0000360D0E710B4034C2468646CA4465DF81B
:103DE000044B604700013000034B1B680A469B6C84
:103DF00001460248184700BF0001300000140424A7
:103E0000014BDB685B691847000130008A1E70B502
:103E100043680D46052A04D8DFE802F0383A4B4DD6
:103E20004F518469B3F1884F5FD160783F2836D90C
:103E30005A4B60781B684038D3F8E830C0B29847D6
:103E400062785748403A0623D2B20021FFF7C2FFFA
:103E5000E07820B1514B1B68D3F8C0309847032D50
:103E600006D14E4B60781B680121D3F8D4309847B7
:103E70004A4B60781B68D3F8C8309847A3786278BB
:103E800021784848BDE87040FFF7A4BFC469C9E77E
:103E9000B3F1884F046A14D160783F281CD8A0F190
:103EA0001903052BD4D83D4B1B68D3F8B83098477D
:103EB000CEE7446AB6E7846AB4E7C46AB2E7046B43
:103EC000B0E7394A9342E7D0384A934211D160783B
:103ED0003F28E4D9032DABD1304B1B684038D3F8D1
:103EE000F0300121C0B29847A2E72F4A9342EBD1AC
:103EF0009BE72F4A934250D1002C4ED062783F2A44
:103F000018D9032D07D1254B1B68403AD3F8F03060
:103F10000121D0B29847214B60781B684038D3F814
:103F2000E830C0B298476278A37821781C48403ABC
:103F3000D2B2A7E71B4821780923FFF74BFFE078AF
:103F400020B1164B1B68D3F8C0309847032D06D11B
:103F5000124B60781B680121D3F8D43098470F4B7F
:103F600060781B68D3F8C830984721780C4862788D
:103F70000023FFF72FFF6078A178A0F12E03032B19
:103F800002D82638C0B202E00F2804D10720BDE8CD
:103F90007040FFF729BF0638F4E770BD000130001C
:103FA00000C0042400001346000100440000024544
:103FB00000180424F0B5436885B00024B3F1884F9D
:103FC00001940546029403940BD0714A934208D0A1
:103FD000704A934200F0B2806F4C181B4442444137
:103FE000E4079A680192019A02F00602062A1CD19F
:103FF0005B690293029FB90700F1A38000267A074C
:1040000007D56B6901221A721B6813B14FF4007057
:1040100098473B0740F1A9806B690122DA711B6860
:1040200013B14FF4807098473443019B99071DD515
:104030006B691E6910201A6A6968964209D09F69E7
:104040000138BF5C0F6002F101021A62F3D196429F
:104050000CD14A6822F002024A60002283F826202E
:104060001B6844F001040BB120469847019B5A0796
:1040700039D56A685369DB072AD56B6911685A69B3
:10408000DB69D1546B69DA69D96801328A42DA6135
:104090001ED169684A6822F001024A6093F828201C
:1040A000023A0021012A19716BD893F8272083F86E
:1040B0002710022A65D0032A65D002F1FF3CDCF10B
:1040C000000242EB0C021B6814430BB120469847D8
:1040D0006B69D969DA68914205D01B6844F04004E5
:1040E0000BB120469847019810F00F004DD16B6836
:1040F0002A689B690393039BD70448BF03F0010020
:10410000C2F3072148BF80024F0603D59E0748BF70
:1041100040F40060D70303D55E0748BF40F4005069
:104120000A0603D51B0748BF40F480506B691B6823
:104130005BB3204305B0BDE8F04018474FF0804422
:104140004FE76B6901225A711B680BB12020984719
:104150006B6993F82820032A7FF450AF93F8266008
:10416000003E18BF0126360149E7F8067FF55CAF2F
:104170006B6901229A711B68002B3FF455AF8020B8
:1041800051E702229FE704229DE705B0F0BD00BF82
:1041900000010044000002450018042430B5044624
:1041A0000AB3B0F5E10F1ED853688025DD608900A1
:1041B000B1FBF0F1D3F8C0006FF30500C3F8C00005
:1041C000002018605860D860DD60C1F387151D605D
:1041D000C1F3873501F03F015D60C3F8C010D860BE
:1041E0005369DC6230BD40F20160FBE72DE9F74323
:1041F0004E69DDF8289096F8295015F001050C4617
:104200001746984661D1C6E90005357286F82650F2
:1042100086F824504B68B3F1884F02D02D4A934260
:1042200012D12D4B10229A602C4BA26BDB690192AC
:1042300094F834200092D3F8A45094F83C20002342
:1042400001214FF08C40A8476268254B9A4215D156
:1042500003F15F4303F5213310229A601F4BA26BD9
:10426000DB69019294F834200092D3F8A45094F8BA
:104270003C20012319464FF08C40A8476268194B37
:104280009A4210D103F5D8434FF400125A64134BED
:10429000228F1B6A0092DD6994F83C2094F8353037
:1042A00011480121A847E3680BB923694BB10B4BB7
:1042B000DB684A461D680B9B41463846A847C9F84B
:1042C00000006369012283F82920002003B0BDE8C3
:1042D000F08300BF0001004400840424000130008A
:1042E00000000245001804240014042438B5436873
:1042F000B3F1884F04460D4602D0154A934215D1BA
:10430000144BDB69D3F8E83000214FF08C4098471C
:10431000E3680BB9236923B10E4BDB6828465B6861
:1043200098476369002083F8290038BD0A4A934200
:1043300005D1084BDB690121D3F8E830E5E7074AEE
:104340009342E5D1034B06481B6A0821DB6BDEE78D
:104350000001004400013000000002450018042460
:104360000014042470B50C4615461E4620B10228E0
:1043700055D06FF0030070BD91F9080000280CDBE8
:1043800043093A4900F01F0020330122824041F8DE
:104390002320BFF34F8FBFF36F8FE36843B1626990
:1043A00092F8262022B1187932462946FFF728FDD7
:1043B00023693BB16269127922B1187932462946E4
:1043C000FFF71EFD63682A4AB3F1884F05D02949DB
:1043D0008B4202D028498B421DD11023D36094F91F
:1043E0000830002B09DB5A09012103F01F03994013
:1043F00002F160031D4A42F82310636900225A60EB
:104400001A7283F8262093F8292022F0020283F8FA
:1044100029200020AFE74FF400139364DFE74A69D7
:1044200092F82930D9071DD513F00203F1D1616844
:104430004B605360137282F826304FF4407313853B
:1044400094F90830002BE4DB03F01F015B099B00AB
:1044500003F1604303F5614301228A40C3F88021E0
:104460001A60D6E74FF0FF3085E700BF00E100E0BB
:104470000084042400010044000002452DE9F04FAF
:104480008FB00DF11C0A06460D46904600211C22F5
:104490005046DDF864901F460CF0CCFB002E00F077
:1044A0008D80002D00F08A80D8F8142092F82930F1
:1044B000580704D44FF0FF300FB0BDE8F08F92F8EA
:1044C0002630002B7DD1012482F82640D8F80CE05C
:1044D00013629661D8F804301561BEF1000F59D00F
:1044E000B3F1884F099450D0374A93424DD0374AA0
:1044F00093424CD0364A9342DCD122460324CDE984
:104500000C4201210B91DEF80000DEF808C0079193
:104510009EF80410BEF800E0CEF3091E6EF30D10F5
:1045200000F0070BBBF1020F01BFBA6894686BF390
:1045300002049460274C0EF101029542E26838BFF4
:1045400005F1FF3ED2F808B0189ACDF8149038BFA4
:10455000CEF3090E6EF30D10CDE903C2CDE9010AC9
:10456000009532463846D8470130A3D0D8F80C0021
:10457000E3680079DB6839464A469847E36849466C
:104580001B6938469847002096E71922B7E71B2297
:104590000224B4E7596989060ED45A6842F002022F
:1045A0005A60F0E74C1C1462715C19600138F4D059
:1045B000116AA942F6D1F0E71020F9E76FF0040084
:1045C0007AE76FF0010077E7000100440000024540
:1045D00000180424000130002DE9F04F8FB09846F8
:1045E00007AB81460F461846164600211C22DDF80F
:1045F00064A00CF01FFB0346B9F1000F7CD0002F24
:104600007AD0726992F82910490704D44FF0FF302C
:104610000FB0BDE8F08F1179012970D00025012479
:10462000546015723069D760C2F81490D561726811
:1046300000285CD0B2F1884FCDE908544CD0314904
:104640008A4249D030498A4248D030498A42DDD135
:104650000324B0F800B0D0F800C0D0F808E0CBF3E5
:10466000091BCDE90C456BF30D1C01210B91079142
:104670000CF007050021022D0A91017901BFD8F83D
:104680000800846865F302048460214C0BF101008A
:104690008742E06838BF07F1FF3B85681898CDF87E
:1046A00014A038BFCBF3090B6BF30D1CCDE903E06D
:1046B000CDE901C300974B464046A8470130A5D03D
:1046C0003069E3680079DB6852464146984796F8BE
:1046D000403033B100209BE71825BAE71A250224A1
:1046E000B7E7E36851461B6940469847F2E75368CD
:1046F00043F001035360EDE76FF0040088E76FF0CB
:10470000010085E700010044000002450018042470
:10471000000130002DE9F3470746DDE90AA8DDF87E
:104720003090084616461D461FB311B30AB35B69A5
:1047300093F82920520723D595F84040F4B12A7800
:1047400012F0060F1CD0032283F827203146CDE952
:10475000008953462A46FFF73FFF60B953462A4671
:1047600031463846CDE90A8902B0BDE8F047FFF787
:1047700085BE6FF0040002B0BDE8F0872046FAE77E
:104780004FF0FF30F7E74369186A70474369D8690B
:10479000704700002DE9F0471C465B69924693F88C
:1047A000292089469107DDE90867804640F1128299
:1047B000C5B2A5F11501052900F2D680DFE801F0A8
:1047C000031929426C94B9F1000F0DD00221204643
:1047D000FFF71CFB626992F8293043F0080382F866
:1047E00029300020BDE8F08722F0080283F8292054
:1047F000F7E7B9F1000F09D003212046FFF706FBC8
:10480000626992F8293043F01003E8E722F01002C1
:10481000ECE7B9F1000F0DD093F82620002A40F004
:10482000DC816168CA6842F04002CA60012283F8F4
:104830002620D6E76168CA6822F04002CA6083F881
:104840002690CEE76068426822F002024260D4E916
:104850000352E2B9B5B10D22826093F826309BB1C4
:10486000B0F1884F08D0884B984205D0874B9842CA
:1048700002D0874B984207D128793A463146FFF754
:10488000BFFA01E00523836063690022CFE70D22B0
:104890008260002DE1D1F7E760682569426822F067
:1048A000010242604DB9E3682BB903238360636959
:1048B00000221A7195E70B23F8E70B2282601B791F
:1048C000002BF4D0B0F1884F08D06F4B984205D040
:1048D0006E4B984202D06E4B9842E8D128793A4606
:1048E0003146FFF78DFAE2E76268E068516821F02F
:1048F0000301516098B193F8263083B1B2F1884F2B
:1049000008D0614B9A4205D0604B9A4202D0604B6E
:104910009A4204D100793A463146FFF771FAD4E958
:104920000402636840B9E368E3B9072362689360EF
:10493000636900221A717AE712799AB1B3F1884F4C
:1049400008D0514A934205D0504A934202D0504A6F
:10495000934207D100793A463146FFF751FA23696D
:10496000002BE0D00F23E1E76A1E132A0BD8DFE803
:1049700002F0320D4054657D0A0A0A0A0A0A0A0A40
:104980000A84817D877D6FF003002BE794F8403027
:10499000002B6FD062683C4B9A426BD123789B0707
:1049A00019D501212046FFF731FA63689A6D42F06C
:1049B00001029A659A6D42F002029A6594F84120CC
:1049C000996D003A18BF012262F3041199659A6D3E
:1049D00042F020029A6508F4E066B6F5A06F6DD04B
:1049E00058D8002E6DD0B6F5807F6CD06FF00800DF
:1049F000F8E66268244B9A423CD123785F0739D5A8
:104A000001212046FFF702FA63689A6D42F0010225
:104A10009A659A6D6FF34102CFE723781E07DAD5C6
:104A20006268116C41F001011164116C83F00203A2
:104A3000C3F3400363F341011164CCE76368B3F14E
:104A4000884F02D0104A934214D12378D80611D54A
:104A500006212046FFF7DAF907212046FFF7D6F9AD
:104A60006268136943F040031361B4E7257815F0D9
:104A70002005B0D06FF00600B4E683F82490B0E6CD
:104A8000257815F04005F4E70001004400000245D8
:104A900000180424B6F5C06F17D0B6F5E06FA5D1A5
:104AA0000026022708F44053B3F5805F10D0B3F519
:104AB000005F1BD073B16FF0090093E6002600275A
:104AC000F0E70327EEE70926F9E700260127E9E7E3
:104AD00047F0180708F44043B3F5804F09D0B3F509
:104AE000004F06D03BB16FF00A007BE647F00807A5
:104AF000F0E747F0040708F44033B3F5003F2FD048
:104B000007D8002B3BD0B3F5803F19D06FF00B00D6
:104B100068E6B3F5403FF9D1637803F01803182B2A
:104B200007D104212046FFF771F905212046FFF740
:104B30006DF9238803F4C073B3F5C07F0BD0E5E7AC
:104B40006378190703D505212046FFF75FF994F92B
:104B50000030002BDADA6268136943F022030DE0BB
:104B60006378DA0603D504212046FFF74FF963780E
:104B7000DB07CBD56268136943F020031361AB1EDA
:104B8000012B05D818F4802F2AD118F4002F2AD130
:104B9000D4F80480D8F8103023F01003C8F810308F
:104BA000224651464846FFF7F9FA6369012183F826
:104BB0002850C8F80810C8F80C70C8F8CC60D8F8AD
:104BC000AC2061F3C402C8F8AC2093F8292042F06D
:104BD00004020BE64FF0FF3004E66FF0010001E63F
:104BE0006FF00C00FEE56FF00D00FBE542694368D5
:104BF000107A5969137981F080015B00C1F3C0110B
:104C000003F002030B435179C90001F008010B4383
:104C10009179090101F010010B43D179490101F0AB
:104C2000200180010B4300F0400018437047000052
:104C30004B6993F829305B0732D54B68002B32D093
:104C4000032830D8DFE800F0020B121F4A78120761
:104C500029D51A6922F002021A61002070474A78A9
:104C6000100720D51A6942F00202F5E7B3F1884F28
:104C700002D00E4A934216D14A78910613D51A698A
:104C800022F00102E8E7B3F1884F02D0074A9342CD
:104C900009D14A78920606D51A6942F00102DBE78B
:104CA0004FF0FF3070476FF0030070470001004481
:104CB000024630B5536800201BB3516991F82910A2
:104CC00049071ED5557899699278EB064CBFC1F318
:104CD0000013034615F0400418BFC1F3401412F04E
:104CE000010218BFC1F380122D060FD5C1F3C01108
:104CF00043EA440343EA810343EAC20363F3070040
:104D000030BD0246014604460346F1E70021EFE7C5
:104D100041F20273984221D011DC41F204539842CF
:104D20001CD005DCF8B101280CBF21200120704700
:104D300041F2017398420CBF11200120704742F2EA
:104D4000041398420CD042F2061398420AD042F261
:104D5000031398420CBF2120012070472120704787
:104D6000282070472B207047014BDB695B6E18478A
:104D700000013000014BDB699B6B184700013000DC
:104D8000014BDB695B6A1847000130003D4B9942DB
:104D900070B50C46154672D83B4B99420AD93B4B2D
:104DA0004FF400125A623A4B10229A615A6C42F048
:104DB00010025A64012838D002284CD000282FD184
:104DC000344B354EDB690121D3F8EC30A422084680
:104DD0009847324B9C60FFF7D3FF314B9D4205D182
:104DE00001F020FB736823F4404373604FF4594390
:104DF000A6F86030274BDB699B682A4621464FF0B6
:104E00008C40984768B9274B9C42274B02D9DA6EF1
:104E1000920305D44FF480229A664FF400329A66CA
:104E20000020BDE87040FFF773BF1C4B1A4E5C6159
:104E3000FFF79AFF1A4B9D4205D101F0F3FA736810
:104E400023F4404373604FF45943A6F8A030114B4C
:104E5000DB699B6DD1E7114B9C61FFF78BFF01F084
:104E6000E1FA0D4B4FF45942A3F8E020094BDB69FE
:104E70002A46DB6B21464FF08C409847D1E7212032
:104E800070BD00BF0095BA0AFF0D2707000028205B
:104E9000008000460001300000801846901C000091
:104EA000005A62027F4A5D0500840424284B99421F
:104EB00070B505460E460DD8264A536A23F40013F2
:104EC0005362254B9A6922F010029A615A6C22F0C3
:104ED00010025A64002211464FF08C4000F02EFC64
:104EE0000246FFF715FF044680BB7DB3042D28D191
:104EF0001A4A31460120FFF749FF02B21046FFF778
:104F000007FF044610BB024629464FF08C4000F0D4
:104F100015FC134B4FF47A721B68B3FBF2F3013BA1
:104F2000B3F1807F09D24FF0E022FC2153610D4B99
:104F300083F82310072394611361BDE87040FFF7E5
:104F4000E7BE022DDAD1054A3146D4E7204670BDCE
:104F5000FF0D27070000282000800046005A62024B
:104F6000E01C000000ED00E008B501F05BFA032151
:104F70004FF08C4000F07EFB01F054FA032000F06B
:104F8000A9FCBDE8084002490220FFF78FBF00BF1F
:104F90000095BA0A044B4FF48072DA63034B4FF466
:104FA00000629A60704700BF00810424000008126C
:104FB00008B5284B4FF400621A60274AD2F88C37A4
:104FC00043F4004343F08003C2F88C37D2F88C37A7
:104FD0005B06FBD5D2F88C27204BDFED216A9FEDD5
:104FE000216A214902F03F021A601A68262A84BF0A
:104FF00026221A601D4A9268EAB11D48C2F31502C2
:105000000260D3ED007A90ED007AF8EE677AB8EEA0
:10501000477A77EEA67A37EE267A67EE867AC7EE7B
:10502000876AC1ED006AFFF7B5FF0A4B4FF40062D3
:105030005A60086808BDD3ED007AF8EE677A77EE1B
:10504000A67ADFED0C6A67EE867A87EEA67A81EDA6
:10505000007AE8E70000081200A00524EC24000014
:1050600089410B4233335340E42400005C170000B5
:10507000E8240000C4A08342F0B5A24CA24BA26871
:105080000578A24E02EA0301027802F001020A4307
:105090009F49A2608A6802EA0304427802F0010292
:1050A000920042EA951222438A600A69457802EA30
:1050B00003040278C2F344022243964C0A61A268B8
:1050C00002EA0301827802F00302520142EAD502A9
:1050D0000A439149A2608A6884781A4042EA94029D
:1050E0008E4C8A60A268C1781A4001F01F011143FA
:1050F000A160B268047902EA030504F03F04C278B3
:10510000640044EAD214C2F3411242EA84022A4300
:10511000B260834E4579B26802EA0304027905F071
:105120007F05920942EA850222437E4DB260AA6859
:1051300002EA0304C27902F00F0222437A4CAA6009
:10514000A268C579067A1A4042EA1512774DA26024
:10515000AA6802EA0304427C02F07F022243AA60AA
:10516000734DAA6802EA0304027A02F07F02224326
:10517000AA60704DAA6802EA0304427A02F01F0294
:10518000520042EAD61222436B4EAA60B268857A78
:1051900002EA0304C27A520042EAD512057B05F006
:1051A000010542EA45222243644DB260AA68467A6C
:1051B00002EA0304827A02F07F02D20042EA561227
:1051C0002243AA605E4D5F4EAA6802EA0304B0F86B
:1051D0000D202243AA60B268457D02EA0304027DE5
:1051E00005F00F0542EA05222243574DB260AA6836
:1051F000564E02EA0304427DC2F302122243AA6021
:10520000B268C57D477902EA0304827D05F00F0587
:1052100042EA05222243B2604D4EC57DB26802EAE1
:105220000304027E120142EA1512457E05F00F05C5
:1052300042EA05322243474DB260AA68467E02EA3E
:105240000304827E120142EA16122243AA60424DF2
:10525000AA6802EA0304B0F81B202243AA603F4D6B
:10526000AA6802EA03048279560802F00102520099
:1052700042EAD71242EA86022243847CAA60457C35
:1052800090F8246004F00F02520052EAD512344D17
:105290001EBFA96819401143A960324D1A4AAB6874
:1052A00003EA0201437F03F00F030B43AB602E4D73
:1052B000AB6803EA0201837FC3F383030B43AB6054
:1052C0002A4DAB6803EA020190F8253003F007038A
:1052D0005B0043EAD6130B43AB60254DAB6803EA92
:1052E0000201C37C03F003035B0043EAD4130B43C6
:1052F0002049AB608B681A40837CC3F302131343CD
:105300008B60F0BD3C1800000000C0FFC417000017
:105310002818000010180000F8170000EC17000013
:10532000A817000080170000741700000418000080
:10533000681700005C1700005017000054180000A8
:105340003817000044170000B41600002C170000A6
:105350002017000014170000081700008C17000029
:10536000E0170000FC160000F0160000E416000034
:10537000CC160000D8160000FCF75EB8F0B5194D49
:10538000194C2B88E5B004F11001002600274FF4DA
:10539000C2726846ADF88431CDE962670BF000FD5A
:1053A00094E80F0000F0C4FC62A800F061FD2B78C7
:1053B000687843EA002000F007FEDDE962453246E6
:1053C0003B46204629460AF009FB48B1074B00221C
:1053D000204629460AF0EEFA10B10020FCF780F8CA
:1053E00065B0F0BDF83C2108643B210800004E4048
:1053F00010B50A4A0A4BD2F80815D3F80240E40562
:10540000FBD440EA5110C2F80805D3F80220D205B7
:10541000FBD4024BD3F8083510BD00BF00A0052413
:105420000000052410F4405F0F4B0BD0D3F8042587
:1054300022F48012C3F80425D3F8042522F40012C4
:10544000C3F80425D3F80825084BD3F80210C90582
:10545000FBD4C04300EA5210034AC2F80805D3F84F
:105460000220D205FBD4704700A0052400000524CB
:105470000D4A0E49D2F81035013823F0030310B558
:10548000C0B2C2F81035D1F80230DC05FBD4D2F836
:105490001045012383402343C2F81035D1F8023070
:1054A000DB05FBD410BD00BF00A0052400000524CF
:1054B0002DE9F04F88B305687DB3002100F1040C9D
:1054C00001275CF83160013150F83130C3F3845466
:1054D000C4EBD3620132162A1FD84FF00009D6F868
:1054E0000080A646CA46224407FA0EFB0EF1010EC2
:1054F00028EA0B08724507FA09FB4AEA0B0A09F188
:105500000109F1D803EA0A03A34043EA0803A942C8
:105510003360D6D10020BDE8F08F0120FBE7F0B565
:1055200000B30768F7B100254FF0010C013550F8C2
:105530003530C3F38454C4EBD3620132162A11D838
:1055400000210E4622440CFA01FE013146EA0E0605
:1055500004EB010E7245F6D8BD42E7D103EA06001E
:10556000A040F0BD0120FCE7024A93689B0D9B051B
:1055700093607047B4160000034AD2F8383723F01E
:105580000403C2F83837704700800524064B074AE9
:10559000996C0748DA620229D96C08BF1A6002299F
:1055A00008BF5A60FFF784BF901C00000048E80164
:1055B00010180000024B034A03485A63FFF778BFF4
:1055C000901C00000048E801F8170000064B074A4D
:1055D000996C07481A630529D96C08BF1A60052918
:1055E00008BF5A60FFF764BF901C0000002D310116
:1055F00068170000034B04484FF4FA421A62FFF7A1
:1056000057BF00BF901C0000EC170000034B04487C
:105610004FF4FA425A62FFF74BBF00BF901C0000E4
:105620008C1700000148FFF77ABF00BF4417000045
:105630000148FFF774BF00BF2C1700000148FFF7B7
:105640006EBF00BF201700000148FFF768BF00BF12
:10565000141700000148FFF762BF00BF08170000E1
:105660000148FFF75CBF00BF3817000001B10847D1
:1056700070470000002858D00139052955D8DFE8C7
:1056800001F003131D273442294BD969012262F32B
:105690000201D961274B9A645B6C264A1360836DC3
:1056A000002BFCDA00207047214BD969022262F3FB
:1056B0000201D9611F4B9A64DB6AEEE71C4BD96982
:1056C000032262F30201D9611A4B9A64DB6BE4E7AF
:1056D000194B40229A83164BD969042262F30201C6
:1056E000D961144B9A641B6CD7E7114B1A6A42F4C8
:1056F00080121A62D969052262F30201D9610D4B49
:105700009A641B6BC9E70A4B1A6A42F480121A6248
:105710001A6A42F400121A62D969062262F302017F
:10572000D961044B9A645B6BB7E70120704700BFF7
:1057300000810424901C00000080134110B5002853
:1057400052D03E2A50D82B4BDB689C0748BF5208EA
:10575000052949D8DFE801F003481B26313C836A5C
:105760006FF303038362244B1B6824490B60846D31
:10577000E405FCD5846A62F30914846212B1B3FBB8
:10578000F2F30B601C4B0A68DA60002010BD836DD9
:105790009B062BD5836A022161F303038362164BB8
:1057A0009B68E2E7836D5C0620D5836A032161F381
:1057B00003038362104B1B69D7E7836D190715D567
:1057C000836A042161F3030383620B4B5B69CCE7BB
:1057D0000B4B5B6A5B0709D5836A052161F3030301
:1057E0008362054B9B6BC0E70120CFE741F201705C
:1057F000CCE700BF00860424901C0000E01C0000E1
:105800000014042407B50B46114606281BD8DFE810
:1058100000F0041E2D333C4A53002C48026A42F427
:105820008002026213B90A20FFF720FF284BD3F849
:105830001C2122F08012C3F81C21D3F81C2142F055
:105840000122C3F81C21002003B05DF804FB1F4AAD
:10585000106A40F480101062106A40F40010106268
:10586000002BF0D10A20FFF701FFECE71748026A8E
:1058700042F480120262F3E71448026A42F4002202
:105880000262002BDFD10220EDE7104A136A43F4D5
:10589000802313624FF4FA700191FFF7E7FE01993C
:1058A00040F2DC50DFE70948026A42F4003202624B
:1058B000002BC8D1FA20D6E70448026A42F48032AD
:1058C0000262002BBFD19620CDE700BF00810424E7
:1058D00000800424013808B5052850D8DFE800F01E
:1058E00003101A243140274BD969012262F3124177
:1058F000D961254BDA645B6C234A0020536008BDF4
:10590000204BD969022262F31241D9611E4BDA643D
:10591000DB6AF1E71B4BD969032262F31241D961BB
:10592000194BDA64DB6BE7E7184B40229A83154B7F
:10593000D969042262F31241D961134BDA641B6CFA
:10594000DAE7002201210220FFF75CFF0D4BD96945
:10595000052262F31241D9610B4BDA641B6BCBE772
:10596000012100220846FFF74DFF064BD9690622A8
:1059700062F31241D961044BDA645B6BBCE701202E
:10598000BDE700BF00810424901C0000008013418B
:1059900041F20273984221D011DC41F20453984243
:1059A0001CD005DCF8B101280CBF21200120704774
:1059B00041F2017398420CBF11200120704742F25E
:1059C000041398420CD042F2061398420AD042F2D5
:1059D000031398420CBF21200120704721207047FB
:1059E000282070472B2070470378012B06D8437876
:1059F000013B0F2B94BF00202120704721207047CE
:105A0000002370B5194600F1F2041A4634F8026F0B
:105A1000DDB2013336B10132D2B2012A01D99A4244
:105A20000BD12946102BF1D11A4B1B78934204D18C
:105A3000012A04D10378994202D0232017E00023E1
:105A4000C2185278012A22D800EB83004369D3B1EF
:105A5000114A934219D8D0F81431104A934207D909
:105A6000D0F854010E4B98428CBF2120002070BD0D
:105A7000B3F53D3F0BD8D0F85431B3F53E3F34BFBA
:105A800000202120F3E72D20F1E72820EFE7212057
:105A9000EDE700BFF0240000A0252600FFFF05244D
:105AA000001B062411B1042900D07047014B1B686C
:105AB000184700BFF424000008B52DED028BFFF756
:105AC00077FADFED087A08EE100AB4EEE78AF1EE15
:105AD00010FA02D50448FFF7EBFC18EE100ABDECF3
:105AE000028B08BD9A9919409C19000084B010B52A
:105AF0002DED028BE4B068AC84E80F00CDA89DEDDD
:105B0000CE8AFFF771FF00284CD1334B9DF8354307
:105B10001C7068A8FFF774FF002843D1012C08BF50
:105B20009DF8A0019DF8342368AB03EB4000012AE7
:105B3000B0F8F43003D1012B3BD02B2032E0013BF5
:105B40009BB240F2FE318B42F7D892BB012C30D988
:105B5000224B62934FF4C272BDF83433ADF88431F6
:105B60006CA968460BF01CF968AB0FCBFDF7FAF98E
:105B7000FFF70EFFB0B9FFF79FFFDFED197AB4EE24
:105B8000E78AF1EE10FA014624D4DFED167AB4EE7E
:105B9000E78AF1EE10FA1DDC18EE100AFCF7A8F9FE
:105BA000FFF7F6FE64B0BDEC028BBDE8104004B018
:105BB00070470A4B62936CA9BDF83433ADF8843159
:105BC0004FF4C27268460BF0EBF868AB0FCBFDF7F1
:105BD00069FACDE72120E5E7F0240000A56A200856
:105BE0006666E63F6666664084B000B5E3B00DF5D4
:105BF000C87C8CE80F00C9A8FFF7F6FED0B964A8EE
:105C0000FFF7FEFEB0B99DF82423BDF82433B2B9E6
:105C10009DF82523012A12D94FF4C27268A968465B
:105C2000ADF884310BF0BCF864AB0FCBFDF732FC60
:105C3000FFF7AEFE63B05DF804EB04B0704768A9EF
:105C40004FF4C2726846ADF884310BF0A9F864AB2A
:105C50000FCBFDF7BBFDEBE7034620B1044A10680C
:105C600018B913607047222070470420704700BFA6
:105C7000F424000008B50348FDF772FFBDE80840B2
:105C8000FFF786BE0038042407B5ADF8040001A86C
:105C9000FFF7AAFE20B90198FCF73CFCFFF778FE5D
:105CA00003B05DF804FB07B5ADF8040001A8FFF7E9
:105CB0009BFE20B90198FDF70BFBFFF769FE03B0CF
:105CC0005DF804FB07B5ADF8040001A8FFF78CFEF2
:105CD00020B90198FDF7B0FBFFF75AFE044B0022F4
:105CE0001A60044B4FF001321A6003B05DF804FBF8
:105CF000F4240000F4000000042902BF014B01223B
:105D00001A70704700250000437853B94269074B69
:105D10009A4208D8B0F8F430012B14BF2B20002091
:105D20007047212070472820704700BFA02526001B
:105D300084B000B5E5B00DF5CC7C8CE80F009DF883
:105D40002C33012B34D19DF82D33013B0F2B2FD851
:105D50006046FFF7D9FF30BB164B62934FF4C27217
:105D6000BDF82C33ADF884316AA968460BF018F8F9
:105D700066AB0FCBFFF7BAFEA8B9BDF82C33ADF870
:105D800084314FF4C2726AA968460BF009F866AB19
:105D90000FCBFFF729FF30B90748FFF75DFF10B9B8
:105DA000CB98FFF771FF65B05DF804EB04B0704766
:105DB0002120F8E73D0A2740F96C200884B000B59F
:105DC000E3B00DF5C87C8CE80F0014238DF8E431A6
:105DD0006046104B8193FFF797FFA8B901460E4A22
:105DE0000E48FDF794FF0E4B4FF4C2721B88ADF8BE
:105DF000843168A968460AF0D3FF64AB0FCBFFF784
:105E0000F3FE003818BF012063B05DF804EB04B066
:105E1000704700BF00004C42403B2108143A042464
:105E2000F83C210884B000B5E3B00DF5C87C8CE8DF
:105E30000F006046FFF768FF98B9FFF71BFF80B9B6
:105E400017238DF8E431094B4FF4C2721B88ADF86B
:105E5000843168A968460AF0A3FF64AB0FCBFFF753
:105E6000C3FE63B05DF804EB04B07047F83C210852
:105E70002DE9F0412DED028B0646E2B0002800F03E
:105E80008F80484D4FF4C27205F1100168460AF048
:105E900087FF95E80F00FFF791FF0446002871D1B6
:105EA000414B1A7862B11870024601213F48FDF754
:105EB00015FF07EE900A3E4BF8EEE77AC3ED007A45
:105EC0003C494FF4C27268460AF06AFF95E80F0039
:105ED000FFF7A8FF0446002854D1DFF8D080364DE4
:105EE0000A27002211464046FDF7F8FE07EE900A09
:105EF000013FF8EEE77A17F0FF07C5ED007AF0D121
:105F0000020545D520F400631B041B0C07EE903AF4
:105F1000F8EEE77AC5ED007AFFF796FB08EE100A77
:105F2000FFF780FB08EE900AFFF79AFB204B95EDF8
:105F3000007AD3ED007ADFED216AB8EE488AC0F529
:105F4000707037EE487A77EEC87A0130C7EE275A7C
:105F500007EE900AF8EEE77AF8EE688A87EEA67AFE
:105F600088EEA66AF0EE477A45EE867ADFED146A8F
:105F70009FED147A17EEA67A17EE100A09F046FA8A
:105F8000C6E90001204662B0BDEC028BBDE8F0819D
:105F900040F400631BB207EE903AF8EE677AB9E777
:105FA0002224EFE7643B2108002500000038042488
:105FB000F8240000743B2108FC24000000007A440F
:105FC00000009B430080884307B5ADF80400C0B2D1
:105FD000012816D19DF80530013B0F2B11D80A4B33
:105FE0005B68DB0705D4019803B05DF804EBFFF7AD
:105FF00069BE0198FFF757FE0028F4D003B05DF8A2
:1060000004FB2120FAE700BF00380424F8B5046837
:10601000012C054622D8124E56F8242042B153686E
:1060200010498B4204D010498B4201D01120F8BD99
:106030000E4B0F49DB680F481F680F4B51F82410B7
:1060400053F8243050F82400B8472B6846F8240051
:1060500056F82330002BE9D00020E8E72120E6E7BE
:10606000142A0000000003440080072400013000CF
:10607000F80000000001000008010000F0B529B19F
:10608000012803D80B6818B9202B0CD921202AE04D
:106090000C2BFBD8012AF9D82C4C6468002C51D069
:1060A00073BB0C2707E0012AF0D8284C2468002C89
:1060B00048D02BBB20270125254C264BAC46A8B940
:1060C00026792EB90D60C4E90200226084F804C06C
:1060D0000E6836BBBD4205F1010604F1180403F158
:1060E000180301D14620F0BD3546E8E71E79002EA1
:1060F000EED10D60C3E902661A6083F804C0E7E7D9
:10610000013B182578B9124C6B43E6183679DEB995
:10611000E2500B68013B05FB0343C3E90200012287
:106120001A710020DFE70B486B43C41824795CB96F
:10613000C2500B68013B05FB03030122C3E9024483
:106140001A71EEE71120CEE74520CCE7142A0000B3
:106150002426000004250000012810B503D811B141
:1061600018B9202909D9212016E00C29FBD8C2B181
:106170000D4B5B688BB911200EE092B10A4B1B6886
:10618000002BF8D01068094B0139182404FB0133A7
:1061900098605268DA60002010BD1068044B013925
:1061A000F3E72220F8E700BF142A000024260000AD
:1061B00004250000012830B536D8002934D0E8B9CC
:1061C000202931D8531E022B2ED8194B53F82030DA
:1061D00063B302F00203D20721D54C1E182578B90B
:1061E000144A05FB0422906033B1124B0139182286
:1061F00002FB01310023CB60002030BD0C29E0E719
:106200000D4A05FB042200209060002BF4D00A4BBD
:106210001822013902FB01330022DA60ECE7002B7F
:10622000EAD00028E1D0F2E72120E6E71120E4E7F8
:10623000142A0000242600000425000072B601285C
:1062400009D1104B2022C3F86C21D3F8702190069D
:10625000FBD462B67047022808D10A4B4022C3F82B
:106260006C21D3F870215106FBD4F2E70328F0D15A
:10627000044B4FF48072C3F86C21D3F87021D2051F
:10628000FBD4E6E700800046054B06480422C3F82D
:106290006C2100684FF0FF330022022106F0B0BFEE
:1062A00000800046202A0000014BC3F86C017047B3
:1062B00000800046014BC3F878017047008000461B
:1062C000064B0748196810B501F054FF044618B989
:1062D0004FF4806006F0EEFB204610BD242A00003B
:1062E000282A000037B52A4CD4F880315D070DD537
:1062F000284B0221186806F027FF0423264AC4F819
:106300008031C2F89030002003B030BDD4F8803125
:10631000980705D5FFF7D4FF0028F5D10223EDE754
:10632000D4F88031D9050DD54FF48075C4F8785173
:106330004FF4804006F0BEFB174BC4F88051C3F801
:106340009050E0E7D4F880319A0604D50220FFF798
:1063500075FF2023D2E7D4F880311B0604D5032033
:10636000FFF76CFF8023C9E7D4F8803113F01003E6
:1063700004D00120FFF762FF1023BFE70748009316
:10638000074A08494FF49D73FAF7B4FF0120BBE7B1
:1063900000800046202A0000000005418A3D2108B7
:1063A000AD3D2108FA3C2108024B5B68DBB203805B
:1063B0000020704700000541064BD3F8742142F0DD
:1063C0000102C3F87421D3F874211207FBD5002011
:1063D000704700BF00800046034AD2F8743123F0B2
:1063E0000103C2F874317047008000460B4BD3F8AC
:1063F000742142F00102C3F87421D3F8742112070A
:10640000FBD5C3F86C01D3F880211042FBD0C3F850
:106410008001034BC3F89000FFF7DEBF0080004609
:106420000000054110B5114C23786BB9104AD2F821
:1064300080319B0509D54FF40073C2F880310D4AB5
:10644000C2F890300123237010BD02F005FA40B16C
:106450004FF40070FFF7CAFF4FF40060FFF7C6FF6C
:10646000F0E7054B01221A70ECE700BF1C2A000080
:1064700000800046000005411D2A000008B5074BBA
:106480001B784BB14FF40070FFF7B0FFBDE8084038
:106490004FF40060FFF7AABF08BD00BF1D2A00002F
:1064A000FFF720BF10B5034C206810B906F036FE88
:1064B000206010BD202A000008B5FBF747F81849F6
:1064C000184AD1F8FC3043F08073C1F8FC301368EF
:1064D00043F001031360144B4FF47A721B68B3FB53
:1064E000F2F3013BB3F1807F09D24FF0E022536118
:1064F000FC2381F823300023936107231361084BA9
:106500001C2283F82320094BD3F87421D20742BF01
:10651000D3F8742122F00102C3F8742108BD00BF32
:1065200000ED00E0001000E0E01C000000800046EC
:10653000264BD3F8742170B50E4611075CBFD3F813
:10654000742142F0010205465ABFC3F874210124A8
:106550000024D3F874211207FBD57CB1204600F04B
:10656000DFF800F0F1F800F099F9184BD3F86C312E
:106570009B0725D506F034FC00200EE000F01CF946
:1065800043B2002B0EDA13F10C0FF7D00733F5D01E
:106590001C30C0B21C2801D9012070BD0C4B53F82F
:1065A0002000FAE73146284600F028F91C30C0B236
:1065B0001C28F1D8064B53F820000028CED0ECE779
:1065C00000F038F80028D5D0E7E700BF008000468B
:1065D000C43D2108B0F1005F70B518D10C4C0D48D6
:1065E000236804225D6C00210623A847236809481C
:1065F0005D6C052206230021A847236805485C6CD2
:106600000022A4460623BDE870401146604770BDD5
:106610000001300000C0042410B5054B00244FF4E5
:106620008070C3E90044FFF745FE204610BD00BF5F
:10663000282A000037B50023ADF80630184BD3F8F0
:106640006C319B0729D4174D4FF47A734FF4CA620B
:106650000121284600F0B0F9044648B1124A134916
:1066600013485423FAF746FE1924204603B030BDE0
:106670000DF106020146286801F0B6F80D4B102214
:1066800000F5A000186010449A8098604FF4C8622A
:1066900002209A81FFF708FEE7E76FF00104E4E7C4
:1066A00000800046242A0000913F2108383E21083E
:1066B000C23E2108302A00000146014801F05FBDBA
:1066C000282A000008B5074B00F5A000186001F566
:1066D000A0011020988099609A81FFF7D5FD0020D5
:1066E00008BD00BF402A000013B50220FFF7E2FDFD
:1066F000FFF7A0FF044630B10090064A064907485C
:106700009A23FAF7F7FD022000F0C2F8204602B003
:1067100010BD00BF7C3F2108383E2108F43E21080F
:10672000064B38B9064AD269D20703D45A6B12F421
:10673000204FFBD1034A5A63704700BF0000054158
:1067400000000812402A0000014B024ADA65704737
:1067500000000541302A000038B5104AD2F87431E3
:106760001B07FBD50E4A0F490F48D123FAF7C2FD8C
:1067700006F084FB64250446002140F2E7304FF424
:106780007A720023E4FB050109F052F906F0FCFBE4
:10679000064B074A5A63074ADA6538BD008000464F
:1067A000563F2108383E2108313F210800000541AD
:1067B000402A0000302A000082B0002301930E4BD3
:1067C000DB6B9AB272B103F47F42B2F52B4F0CD15E
:1067D000DBB2F12B0CD0F22B14BF00206FF00900BC
:1067E00002B070476FF00600FAE76FF00B00F7E7B2
:1067F0006FF00800F4E700BF0000054130B585B038
:1068000000234B280093214A01931ED14AF24B03E7
:1068100043EA0123536300221C4D00924FF6FE71A0
:1068200040F42B40009B5C1C8B42009403D80292E6
:10683000AB8F8342F6D100984FF6FE7398424FF02B
:10684000FF30D8BF002005B030BD412811D14AF239
:10685000410343EA01235363002303930B4B93F853
:106860003C30232B0FD0F32B14BF00206FF004001B
:10687000E9E740F42B43536300F0BF03312BEBD027
:106880004A28E9D0C7E76FF00D00DCE700000541BA
:10689000014BC3F87C01704700800046094BA622DB
:1068A000C3F87C21D3F8742142F00202C3F87421AA
:1068B0004FF0E0234FF48062C3F80821142283F8DC
:1068C0004A2470470080004608B500F017F8034AD4
:1068D000034B002814BF1046184608BD502A00007C
:1068E0004C06010000207047704708B5FFF7DAFD3D
:1068F000002008BD7047704770470000034B586880
:10690000C0F30800003818BF0120704700ED00E018
:1069100073B5044600283CD0204B82789A704278A8
:106920005A7002781A7008F0A6FAA278092A03466B
:1069300005D96278092A02D92278092A0BD8184683
:1069400008F09DFA1648174A1749C423FAF7D2FCF3
:10695000212002B070BD08F092FA62782578134BBE
:106960001544A2781C601544A3686468EDB204FB6A
:1069700005F633B9304609F00DFA0D4A03461060AA
:1069800048B10C4800962A46A1B208F088FA0020C7
:10699000DFE72220DDE71920DBE700BF542A0000F3
:1069A0003140210868402108A93F2108602A0000E1
:1069B0005C2A0000642A00002DE9F84F0D461F46AE
:1069C000044600284BD006F04DFADFF8A090DFF81F
:1069D000A0A0002380462360022608F04CFA19F894
:1069E00005101AF805209142834618D21D4808F078
:1069F00074FA206098B119F805205846013209F858
:106A0000052008F03CFA236800221A60164A1D721D
:106A1000126852680C3A5A600020BDE8F88F584658
:106A200008F02DFA06F02AFA0021844640F2E730F9
:106A3000E6FB0C014FF47A72002308F0F9FF06F030
:106A4000A3FA312E404694BF7600322601F06EFB49
